{
  "_format": "hh-sol-artifact-1",
  "contractName": "GrantsCubeNFTFactory",
  "sourceName": "contracts/GrantsCubeNFTFactory.sol",
  "abi": [
    {
      "inputs": [
        {
          "internalType": "address",
          "name": "owner",
          "type": "address"
        }
      ],
      "stateMutability": "nonpayable",
      "type": "constructor"
    },
    {
      "anonymous": false,
      "inputs": [
        {
          "indexed": false,
          "internalType": "address",
          "name": "grantscubenft",
          "type": "address"
        }
      ],
      "name": "GrantsCubeContractCreated",
      "type": "event"
    },
    {
      "anonymous": false,
      "inputs": [
        {
          "indexed": true,
          "internalType": "address",
          "name": "previousOwner",
          "type": "address"
        },
        {
          "indexed": true,
          "internalType": "address",
          "name": "newOwner",
          "type": "address"
        }
      ],
      "name": "OwnershipTransferred",
      "type": "event"
    },
    {
      "anonymous": false,
      "inputs": [
        {
          "indexed": true,
          "internalType": "bytes32",
          "name": "role",
          "type": "bytes32"
        },
        {
          "indexed": true,
          "internalType": "bytes32",
          "name": "previousAdminRole",
          "type": "bytes32"
        },
        {
          "indexed": true,
          "internalType": "bytes32",
          "name": "newAdminRole",
          "type": "bytes32"
        }
      ],
      "name": "RoleAdminChanged",
      "type": "event"
    },
    {
      "anonymous": false,
      "inputs": [
        {
          "indexed": true,
          "internalType": "bytes32",
          "name": "role",
          "type": "bytes32"
        },
        {
          "indexed": true,
          "internalType": "address",
          "name": "account",
          "type": "address"
        },
        {
          "indexed": true,
          "internalType": "address",
          "name": "sender",
          "type": "address"
        }
      ],
      "name": "RoleGranted",
      "type": "event"
    },
    {
      "anonymous": false,
      "inputs": [
        {
          "indexed": true,
          "internalType": "bytes32",
          "name": "role",
          "type": "bytes32"
        },
        {
          "indexed": true,
          "internalType": "address",
          "name": "account",
          "type": "address"
        },
        {
          "indexed": true,
          "internalType": "address",
          "name": "sender",
          "type": "address"
        }
      ],
      "name": "RoleRevoked",
      "type": "event"
    },
    {
      "inputs": [],
      "name": "DEFAULT_ADMIN_ROLE",
      "outputs": [
        {
          "internalType": "bytes32",
          "name": "",
          "type": "bytes32"
        }
      ],
      "stateMutability": "view",
      "type": "function"
    },
    {
      "inputs": [],
      "name": "FACTORY_MANAGER",
      "outputs": [
        {
          "internalType": "bytes32",
          "name": "",
          "type": "bytes32"
        }
      ],
      "stateMutability": "view",
      "type": "function"
    },
    {
      "inputs": [
        {
          "internalType": "address",
          "name": "_newFactoryManager",
          "type": "address"
        }
      ],
      "name": "addFactoryManager",
      "outputs": [],
      "stateMutability": "nonpayable",
      "type": "function"
    },
    {
      "inputs": [
        {
          "internalType": "string",
          "name": "_name",
          "type": "string"
        },
        {
          "internalType": "string",
          "name": "_symbol",
          "type": "string"
        },
        {
          "internalType": "address",
          "name": "ownerOfToken",
          "type": "address"
        }
      ],
      "name": "createGrantsCubeNFTContract",
      "outputs": [
        {
          "internalType": "address",
          "name": "grantsCubeNFTContractAddress",
          "type": "address"
        }
      ],
      "stateMutability": "nonpayable",
      "type": "function"
    },
    {
      "inputs": [
        {
          "internalType": "string",
          "name": "",
          "type": "string"
        }
      ],
      "name": "deployedAddress",
      "outputs": [
        {
          "internalType": "address",
          "name": "",
          "type": "address"
        }
      ],
      "stateMutability": "view",
      "type": "function"
    },
    {
      "inputs": [
        {
          "internalType": "bytes32",
          "name": "role",
          "type": "bytes32"
        }
      ],
      "name": "getRoleAdmin",
      "outputs": [
        {
          "internalType": "bytes32",
          "name": "",
          "type": "bytes32"
        }
      ],
      "stateMutability": "view",
      "type": "function"
    },
    {
      "inputs": [
        {
          "internalType": "bytes32",
          "name": "role",
          "type": "bytes32"
        },
        {
          "internalType": "address",
          "name": "account",
          "type": "address"
        }
      ],
      "name": "grantRole",
      "outputs": [],
      "stateMutability": "nonpayable",
      "type": "function"
    },
    {
      "inputs": [
        {
          "internalType": "bytes32",
          "name": "role",
          "type": "bytes32"
        },
        {
          "internalType": "address",
          "name": "account",
          "type": "address"
        }
      ],
      "name": "hasRole",
      "outputs": [
        {
          "internalType": "bool",
          "name": "",
          "type": "bool"
        }
      ],
      "stateMutability": "view",
      "type": "function"
    },
    {
      "inputs": [],
      "name": "owner",
      "outputs": [
        {
          "internalType": "address",
          "name": "",
          "type": "address"
        }
      ],
      "stateMutability": "view",
      "type": "function"
    },
    {
      "inputs": [],
      "name": "renounceOwnership",
      "outputs": [],
      "stateMutability": "nonpayable",
      "type": "function"
    },
    {
      "inputs": [
        {
          "internalType": "bytes32",
          "name": "role",
          "type": "bytes32"
        },
        {
          "internalType": "address",
          "name": "account",
          "type": "address"
        }
      ],
      "name": "renounceRole",
      "outputs": [],
      "stateMutability": "nonpayable",
      "type": "function"
    },
    {
      "inputs": [
        {
          "internalType": "bytes32",
          "name": "role",
          "type": "bytes32"
        },
        {
          "internalType": "address",
          "name": "account",
          "type": "address"
        }
      ],
      "name": "revokeRole",
      "outputs": [],
      "stateMutability": "nonpayable",
      "type": "function"
    },
    {
      "inputs": [
        {
          "internalType": "bytes4",
          "name": "interfaceId",
          "type": "bytes4"
        }
      ],
      "name": "supportsInterface",
      "outputs": [
        {
          "internalType": "bool",
          "name": "",
          "type": "bool"
        }
      ],
      "stateMutability": "view",
      "type": "function"
    },
    {
      "inputs": [
        {
          "internalType": "address",
          "name": "newOwner",
          "type": "address"
        }
      ],
      "name": "transferOwnership",
      "outputs": [],
      "stateMutability": "nonpayable",
      "type": "function"
    }
  ],
  "bytecode": "0x60806040523480156200001157600080fd5b506040516200601c3803806200601c8339818101604052810190620000379190620002f8565b620000576200004b6200006f60201b60201c565b6200007760201b60201c565b62000068816200013d60201b60201c565b5062000445565b600033905090565b6000600160009054906101000a900473ffffffffffffffffffffffffffffffffffffffff16905081600160006101000a81548173ffffffffffffffffffffffffffffffffffffffff021916908373ffffffffffffffffffffffffffffffffffffffff1602179055508173ffffffffffffffffffffffffffffffffffffffff168173ffffffffffffffffffffffffffffffffffffffff167f8be0079c531659141344cd1fd0a4f28419497f9722a3daafe3b4186f6b6457e060405160405180910390a35050565b6200014d620001d360201b60201c565b600073ffffffffffffffffffffffffffffffffffffffff168173ffffffffffffffffffffffffffffffffffffffff1603620001bf576040517f08c379a0000000000000000000000000000000000000000000000000000000008152600401620001b690620003b1565b60405180910390fd5b620001d0816200007760201b60201c565b50565b620001e36200006f60201b60201c565b73ffffffffffffffffffffffffffffffffffffffff16620002096200026460201b60201c565b73ffffffffffffffffffffffffffffffffffffffff161462000262576040517f08c379a0000000000000000000000000000000000000000000000000000000008152600401620002599062000423565b60405180910390fd5b565b6000600160009054906101000a900473ffffffffffffffffffffffffffffffffffffffff16905090565b600080fd5b600073ffffffffffffffffffffffffffffffffffffffff82169050919050565b6000620002c08262000293565b9050919050565b620002d281620002b3565b8114620002de57600080fd5b50565b600081519050620002f281620002c7565b92915050565b6000602082840312156200031157620003106200028e565b5b60006200032184828501620002e1565b91505092915050565b600082825260208201905092915050565b7f4f776e61626c653a206e6577206f776e657220697320746865207a65726f206160008201527f6464726573730000000000000000000000000000000000000000000000000000602082015250565b6000620003996026836200032a565b9150620003a6826200033b565b604082019050919050565b60006020820190508181036000830152620003cc816200038a565b9050919050565b7f4f776e61626c653a2063616c6c6572206973206e6f7420746865206f776e6572600082015250565b60006200040b6020836200032a565b91506200041882620003d3565b602082019050919050565b600060208201905081810360008301526200043e81620003fc565b9050919050565b615bc780620004556000396000f3fe60806040523480156200001157600080fd5b5060043610620001005760003560e01c8063732ab2c71162000099578063a217fddf116200006f578063a217fddf146200028d578063d547741f14620002af578063f2fde38b14620002cf578063f88f6de714620002ef5762000100565b8063732ab2c714620001ff5780638da5cb5b146200023557806391d1485414620002575762000100565b806336568abe11620000db57806336568abe146200019157806338f614c814620001b157806342246a5714620001d1578063715018a614620001f35762000100565b806301ffc9a71462000105578063248a9ca3146200013b5780632f2ff15d1462000171575b600080fd5b6200012360048036038101906200011d919062000ef2565b62000325565b60405162000132919062000f41565b60405180910390f35b62000159600480360381019062000153919062000f99565b620003a2565b60405162000168919062000fdc565b60405180910390f35b6200018f60048036038101906200018991906200105e565b620003c1565b005b620001af6004803603810190620001a991906200105e565b620003e8565b005b620001cf6004803603810190620001c99190620010a5565b62000472565b005b620001db620004ab565b604051620001ea919062000fdc565b60405180910390f35b620001fd620004cf565b005b6200021d600480360381019062000217919062001239565b620004e7565b6040516200022c9190620012e4565b60405180910390f35b6200023f6200063b565b6040516200024e9190620012e4565b60405180910390f35b6200027560048036038101906200026f91906200105e565b62000665565b60405162000284919062000f41565b60405180910390f35b62000297620006cf565b604051620002a6919062000fdc565b60405180910390f35b620002cd6004803603810190620002c791906200105e565b620006d6565b005b620002ed6004803603810190620002e79190620010a5565b620006fd565b005b6200030d600480360381019062000307919062001301565b62000787565b6040516200031c9190620012e4565b60405180910390f35b60007f7965db0b000000000000000000000000000000000000000000000000000000007bffffffffffffffffffffffffffffffffffffffffffffffffffffffff1916827bffffffffffffffffffffffffffffffffffffffffffffffffffffffff191614806200039b57506200039a82620007d0565b5b9050919050565b6000806000838152602001908152602001600020600101549050919050565b620003cc82620003a2565b620003d7816200083a565b620003e3838362000852565b505050565b620003f262000937565b73ffffffffffffffffffffffffffffffffffffffff168173ffffffffffffffffffffffffffffffffffffffff161462000462576040517f08c379a00000000000000000000000000000000000000000000000000000000081526004016200045990620013d9565b60405180910390fd5b6200046e82826200093f565b5050565b6200047c62000a25565b620004a87fc11a64747fcf938d285e6a0adf0a15126148ec21a274c20c2048f6c55f7ad5d182620003c1565b50565b7fc11a64747fcf938d285e6a0adf0a15126148ec21a274c20c2048f6c55f7ad5d181565b620004d962000a25565b620004e5600062000aaa565b565b6000620005157fc11a64747fcf938d285e6a0adf0a15126148ec21a274c20c2048f6c55f7ad5d13362000665565b62000557576040517f08c379a00000000000000000000000000000000000000000000000000000000081526004016200054e906200144b565b60405180910390fd5b60008484846040516200056a9062000e73565b6200057893929190620014ef565b604051809103906000f08015801562000595573d6000803e3d6000fd5b50905080915081600286604051620005ae91906200157c565b908152602001604051809103902060006101000a81548173ffffffffffffffffffffffffffffffffffffffff021916908373ffffffffffffffffffffffffffffffffffffffff1602179055507f6ae18f52c6a3ee7ef0bd029ab652997dd13d5947f472010ffcf1237524ec8afc826040516200062b9190620012e4565b60405180910390a1509392505050565b6000600160009054906101000a900473ffffffffffffffffffffffffffffffffffffffff16905090565b600080600084815260200190815260200160002060000160008373ffffffffffffffffffffffffffffffffffffffff1673ffffffffffffffffffffffffffffffffffffffff16815260200190815260200160002060009054906101000a900460ff16905092915050565b6000801b81565b620006e182620003a2565b620006ec816200083a565b620006f883836200093f565b505050565b6200070762000a25565b600073ffffffffffffffffffffffffffffffffffffffff168173ffffffffffffffffffffffffffffffffffffffff160362000779576040517f08c379a000000000000000000000000000000000000000000000000000000000815260040162000770906200160b565b60405180910390fd5b620007848162000aaa565b50565b6002818051602081018201805184825260208301602085012081835280955050505050506000915054906101000a900473ffffffffffffffffffffffffffffffffffffffff1681565b60007f01ffc9a7000000000000000000000000000000000000000000000000000000007bffffffffffffffffffffffffffffffffffffffffffffffffffffffff1916827bffffffffffffffffffffffffffffffffffffffffffffffffffffffff1916149050919050565b6200084f816200084962000937565b62000b70565b50565b6200085e828262000665565b6200093357600160008084815260200190815260200160002060000160008373ffffffffffffffffffffffffffffffffffffffff1673ffffffffffffffffffffffffffffffffffffffff16815260200190815260200160002060006101000a81548160ff021916908315150217905550620008d862000937565b73ffffffffffffffffffffffffffffffffffffffff168173ffffffffffffffffffffffffffffffffffffffff16837f2f8788117e7eff1d82e926ec794901d17c78024a50270940304540a733656f0d60405160405180910390a45b5050565b600033905090565b6200094b828262000665565b1562000a2157600080600084815260200190815260200160002060000160008373ffffffffffffffffffffffffffffffffffffffff1673ffffffffffffffffffffffffffffffffffffffff16815260200190815260200160002060006101000a81548160ff021916908315150217905550620009c662000937565b73ffffffffffffffffffffffffffffffffffffffff168173ffffffffffffffffffffffffffffffffffffffff16837ff6391f5c32d9c69d2a47ea670b442974b53935d1edc7fd64eb21e047a839171b60405160405180910390a45b5050565b62000a2f62000937565b73ffffffffffffffffffffffffffffffffffffffff1662000a4f6200063b565b73ffffffffffffffffffffffffffffffffffffffff161462000aa8576040517f08c379a000000000000000000000000000000000000000000000000000000000815260040162000a9f906200167d565b60405180910390fd5b565b6000600160009054906101000a900473ffffffffffffffffffffffffffffffffffffffff16905081600160006101000a81548173ffffffffffffffffffffffffffffffffffffffff021916908373ffffffffffffffffffffffffffffffffffffffff1602179055508173ffffffffffffffffffffffffffffffffffffffff168173ffffffffffffffffffffffffffffffffffffffff167f8be0079c531659141344cd1fd0a4f28419497f9722a3daafe3b4186f6b6457e060405160405180910390a35050565b62000b7c828262000665565b62000c145762000ba48173ffffffffffffffffffffffffffffffffffffffff16601462000c18565b62000bb48360001c602062000c18565b60405160200162000bc79291906200173f565b6040516020818303038152906040526040517f08c379a000000000000000000000000000000000000000000000000000000000815260040162000c0b919062001781565b60405180910390fd5b5050565b60606000600283600262000c2d9190620017de565b62000c3991906200183f565b67ffffffffffffffff81111562000c555762000c54620010f2565b5b6040519080825280601f01601f19166020018201604052801562000c885781602001600182028036833780820191505090505b5090507f30000000000000000000000000000000000000000000000000000000000000008160008151811062000cc35762000cc26200189c565b5b60200101907effffffffffffffffffffffffffffffffffffffffffffffffffffffffffffff1916908160001a9053507f78000000000000000000000000000000000000000000000000000000000000008160018151811062000d2a5762000d296200189c565b5b60200101907effffffffffffffffffffffffffffffffffffffffffffffffffffffffffffff1916908160001a9053506000600184600262000d6c9190620017de565b62000d7891906200183f565b90505b600181111562000e22577f3031323334353637383961626364656600000000000000000000000000000000600f86166010811062000dbe5762000dbd6200189c565b5b1a60f81b82828151811062000dd85762000dd76200189c565b5b60200101907effffffffffffffffffffffffffffffffffffffffffffffffffffffffffffff1916908160001a905350600485901c94508062000e1a90620018cb565b905062000d7b565b506000841462000e69576040517f08c379a000000000000000000000000000000000000000000000000000000000815260040162000e609062001949565b60405180910390fd5b8091505092915050565b614226806200196c83390190565b6000604051905090565b600080fd5b600080fd5b60007fffffffff0000000000000000000000000000000000000000000000000000000082169050919050565b62000ecc8162000e95565b811462000ed857600080fd5b50565b60008135905062000eec8162000ec1565b92915050565b60006020828403121562000f0b5762000f0a62000e8b565b5b600062000f1b8482850162000edb565b91505092915050565b60008115159050919050565b62000f3b8162000f24565b82525050565b600060208201905062000f58600083018462000f30565b92915050565b6000819050919050565b62000f738162000f5e565b811462000f7f57600080fd5b50565b60008135905062000f938162000f68565b92915050565b60006020828403121562000fb25762000fb162000e8b565b5b600062000fc28482850162000f82565b91505092915050565b62000fd68162000f5e565b82525050565b600060208201905062000ff3600083018462000fcb565b92915050565b600073ffffffffffffffffffffffffffffffffffffffff82169050919050565b6000620010268262000ff9565b9050919050565b620010388162001019565b81146200104457600080fd5b50565b60008135905062001058816200102d565b92915050565b6000806040838503121562001078576200107762000e8b565b5b6000620010888582860162000f82565b92505060206200109b8582860162001047565b9150509250929050565b600060208284031215620010be57620010bd62000e8b565b5b6000620010ce8482850162001047565b91505092915050565b600080fd5b600080fd5b6000601f19601f8301169050919050565b7f4e487b7100000000000000000000000000000000000000000000000000000000600052604160045260246000fd5b6200112c82620010e1565b810181811067ffffffffffffffff821117156200114e576200114d620010f2565b5b80604052505050565b60006200116362000e81565b905062001171828262001121565b919050565b600067ffffffffffffffff821115620011945762001193620010f2565b5b6200119f82620010e1565b9050602081019050919050565b82818337600083830152505050565b6000620011d2620011cc8462001176565b62001157565b905082815260208101848484011115620011f157620011f0620010dc565b5b620011fe848285620011ac565b509392505050565b600082601f8301126200121e576200121d620010d7565b5b813562001230848260208601620011bb565b91505092915050565b60008060006060848603121562001255576200125462000e8b565b5b600084013567ffffffffffffffff81111562001276576200127562000e90565b5b620012848682870162001206565b935050602084013567ffffffffffffffff811115620012a857620012a762000e90565b5b620012b68682870162001206565b9250506040620012c98682870162001047565b9150509250925092565b620012de8162001019565b82525050565b6000602082019050620012fb6000830184620012d3565b92915050565b6000602082840312156200131a576200131962000e8b565b5b600082013567ffffffffffffffff8111156200133b576200133a62000e90565b5b620013498482850162001206565b91505092915050565b600082825260208201905092915050565b7f416363657373436f6e74726f6c3a2063616e206f6e6c792072656e6f756e636560008201527f20726f6c657320666f722073656c660000000000000000000000000000000000602082015250565b6000620013c1602f8362001352565b9150620013ce8262001363565b604082019050919050565b60006020820190508181036000830152620013f481620013b2565b9050919050565b7f4e6f7420666163746f7279206d616e6167657200000000000000000000000000600082015250565b60006200143360138362001352565b91506200144082620013fb565b602082019050919050565b60006020820190508181036000830152620014668162001424565b9050919050565b600081519050919050565b60005b83811015620014985780820151818401526020810190506200147b565b83811115620014a8576000848401525b50505050565b6000620014bb826200146d565b620014c7818562001352565b9350620014d981856020860162001478565b620014e481620010e1565b840191505092915050565b600060608201905081810360008301526200150b8186620014ae565b90508181036020830152620015218185620014ae565b9050620015326040830184620012d3565b949350505050565b600081905092915050565b600062001552826200146d565b6200155e81856200153a565b93506200157081856020860162001478565b80840191505092915050565b60006200158a828462001545565b915081905092915050565b7f4f776e61626c653a206e6577206f776e657220697320746865207a65726f206160008201527f6464726573730000000000000000000000000000000000000000000000000000602082015250565b6000620015f360268362001352565b9150620016008262001595565b604082019050919050565b600060208201905081810360008301526200162681620015e4565b9050919050565b7f4f776e61626c653a2063616c6c6572206973206e6f7420746865206f776e6572600082015250565b60006200166560208362001352565b915062001672826200162d565b602082019050919050565b60006020820190508181036000830152620016988162001656565b9050919050565b7f416363657373436f6e74726f6c3a206163636f756e7420000000000000000000600082015250565b6000620016d76017836200153a565b9150620016e4826200169f565b601782019050919050565b7f206973206d697373696e6720726f6c6520000000000000000000000000000000600082015250565b6000620017276011836200153a565b91506200173482620016ef565b601182019050919050565b60006200174c82620016c8565b91506200175a828562001545565b9150620017678262001718565b915062001775828462001545565b91508190509392505050565b600060208201905081810360008301526200179d8184620014ae565b905092915050565b6000819050919050565b7f4e487b7100000000000000000000000000000000000000000000000000000000600052601160045260246000fd5b6000620017eb82620017a5565b9150620017f883620017a5565b9250817fffffffffffffffffffffffffffffffffffffffffffffffffffffffffffffffff0483118215151615620018345762001833620017af565b5b828202905092915050565b60006200184c82620017a5565b91506200185983620017a5565b9250827fffffffffffffffffffffffffffffffffffffffffffffffffffffffffffffffff03821115620018915762001890620017af565b5b828201905092915050565b7f4e487b7100000000000000000000000000000000000000000000000000000000600052603260045260246000fd5b6000620018d882620017a5565b915060008203620018ee57620018ed620017af565b5b600182039050919050565b7f537472696e67733a20686578206c656e67746820696e73756666696369656e74600082015250565b60006200193160208362001352565b91506200193e82620018f9565b602082019050919050565b60006020820190508181036000830152620019648162001922565b905091905056fe60806040523480156200001157600080fd5b5060405162004226380380620042268339818101604052810190620000379190620004db565b828281600090805190602001906200005192919062000229565b5080600190805190602001906200006a92919062000229565b5050506200008d620000816200015b60201b60201c565b6200016360201b60201c565b6040518060400160405280600a81526020017f4772616e74734375626500000000000000000000000000000000000000000000815250600c9080519060200190620000da92919062000229565b506000600d60006101000a81548160ff0219169083151502179055506001600d60016101000a81548160ff02191690831515021790555080600f60006101000a81548173ffffffffffffffffffffffffffffffffffffffff021916908373ffffffffffffffffffffffffffffffffffffffff160217905550505050620005d9565b600033905090565b6000600a60009054906101000a900473ffffffffffffffffffffffffffffffffffffffff16905081600a60006101000a81548173ffffffffffffffffffffffffffffffffffffffff021916908373ffffffffffffffffffffffffffffffffffffffff1602179055508173ffffffffffffffffffffffffffffffffffffffff168173ffffffffffffffffffffffffffffffffffffffff167f8be0079c531659141344cd1fd0a4f28419497f9722a3daafe3b4186f6b6457e060405160405180910390a35050565b8280546200023790620005a4565b90600052602060002090601f0160209004810192826200025b5760008555620002a7565b82601f106200027657805160ff1916838001178555620002a7565b82800160010185558215620002a7579182015b82811115620002a657825182559160200191906001019062000289565b5b509050620002b69190620002ba565b5090565b5b80821115620002d5576000816000905550600101620002bb565b5090565b6000604051905090565b600080fd5b600080fd5b600080fd5b600080fd5b6000601f19601f8301169050919050565b7f4e487b7100000000000000000000000000000000000000000000000000000000600052604160045260246000fd5b6200034282620002f7565b810181811067ffffffffffffffff8211171562000364576200036362000308565b5b80604052505050565b600062000379620002d9565b905062000387828262000337565b919050565b600067ffffffffffffffff821115620003aa57620003a962000308565b5b620003b582620002f7565b9050602081019050919050565b60005b83811015620003e2578082015181840152602081019050620003c5565b83811115620003f2576000848401525b50505050565b60006200040f62000409846200038c565b6200036d565b9050828152602081018484840111156200042e576200042d620002f2565b5b6200043b848285620003c2565b509392505050565b600082601f8301126200045b576200045a620002ed565b5b81516200046d848260208601620003f8565b91505092915050565b600073ffffffffffffffffffffffffffffffffffffffff82169050919050565b6000620004a38262000476565b9050919050565b620004b58162000496565b8114620004c157600080fd5b50565b600081519050620004d581620004aa565b92915050565b600080600060608486031215620004f757620004f6620002e3565b5b600084015167ffffffffffffffff811115620005185762000517620002e8565b5b620005268682870162000443565b935050602084015167ffffffffffffffff8111156200054a5762000549620002e8565b5b620005588682870162000443565b92505060406200056b86828701620004c4565b9150509250925092565b7f4e487b7100000000000000000000000000000000000000000000000000000000600052602260045260246000fd5b60006002820490506001821680620005bd57607f821691505b602082108103620005d357620005d262000575565b5b50919050565b613c3d80620005e96000396000f3fe6080604052600436106101a05760003560e01c80636352211e116100ec578063a75d961e1161008a578063c87b56dd11610064578063c87b56dd146105f4578063d0def52114610631578063e985e9c51461064d578063f2fde38b1461068a576101a7565b8063a75d961e14610565578063b88d4fde1461058e578063c0da9bcd146105b7576101a7565b806384c4bd4b116100c657806384c4bd4b146104bb5780638da5cb5b146104e657806395d89b4114610511578063a22cb4651461053c576101a7565b80636352211e1461042a57806370a0823114610467578063715018a6146104a4576101a7565b806323b872dd116101595780633ccfd60b116101335780633ccfd60b1461038257806342842e0e146103995780634f6ccce7146103c25780635c4ef1ca146103ff576101a7565b806323b872dd146102df5780632f745c59146103085780633c683cff14610345576101a7565b806301ffc9a7146101a957806306fdde03146101e6578063081812fc14610211578063095ea7b31461024e5780631620245d1461027757806318160ddd146102b4576101a7565b366101a757005b005b3480156101b557600080fd5b506101d060048036038101906101cb919061294b565b6106b3565b6040516101dd9190612993565b60405180910390f35b3480156101f257600080fd5b506101fb6106c5565b6040516102089190612a47565b60405180910390f35b34801561021d57600080fd5b5061023860048036038101906102339190612a9f565b610757565b6040516102459190612b0d565b60405180910390f35b34801561025a57600080fd5b5061027560048036038101906102709190612b54565b61079d565b005b34801561028357600080fd5b5061029e60048036038101906102999190612a9f565b61090a565b6040516102ab9190612a47565b60405180910390f35b3480156102c057600080fd5b506102c96109b2565b6040516102d69190612ba3565b60405180910390f35b3480156102eb57600080fd5b5061030660048036038101906103019190612bbe565b6109bf565b005b34801561031457600080fd5b5061032f600480360381019061032a9190612b54565b610a75565b60405161033c9190612ba3565b60405180910390f35b34801561035157600080fd5b5061036c60048036038101906103679190612a9f565b610b1a565b6040516103799190612b0d565b60405180910390f35b34801561038e57600080fd5b50610397610b57565b005b3480156103a557600080fd5b506103c060048036038101906103bb9190612bbe565b610bf2565b005b3480156103ce57600080fd5b506103e960048036038101906103e49190612a9f565b610c12565b6040516103f69190612ba3565b60405180910390f35b34801561040b57600080fd5b50610414610c83565b6040516104219190612a47565b60405180910390f35b34801561043657600080fd5b50610451600480360381019061044c9190612a9f565b610d11565b60405161045e9190612b0d565b60405180910390f35b34801561047357600080fd5b5061048e60048036038101906104899190612c11565b610dc2565b60405161049b9190612ba3565b60405180910390f35b3480156104b057600080fd5b506104b9610e79565b005b3480156104c757600080fd5b506104d0610e8d565b6040516104dd9190612ba3565b60405180910390f35b3480156104f257600080fd5b506104fb610e99565b6040516105089190612b0d565b60405180910390f35b34801561051d57600080fd5b50610526610ec3565b6040516105339190612a47565b60405180910390f35b34801561054857600080fd5b50610563600480360381019061055e9190612c6a565b610f55565b005b34801561057157600080fd5b5061058c60048036038101906105879190612d0f565b610f6b565b005b34801561059a57600080fd5b506105b560048036038101906105b09190612e8c565b610f89565b005b3480156105c357600080fd5b506105de60048036038101906105d99190612a9f565b611041565b6040516105eb919061300e565b60405180910390f35b34801561060057600080fd5b5061061b60048036038101906106169190612a9f565b611158565b6040516106289190612a47565b60405180910390f35b61064b60048036038101906106469190613030565b61116a565b005b34801561065957600080fd5b50610674600480360381019061066f9190613090565b6111bd565b6040516106819190612993565b60405180910390f35b34801561069657600080fd5b506106b160048036038101906106ac9190612c11565b611251565b005b60006106be826112d4565b9050919050565b6060600080546106d4906130ff565b80601f0160208091040260200160405190810160405280929190818152602001828054610700906130ff565b801561074d5780601f106107225761010080835404028352916020019161074d565b820191906000526020600020905b81548152906001019060200180831161073057829003601f168201915b5050505050905090565b60006107628261134e565b6004600083815260200190815260200160002060009054906101000a900473ffffffffffffffffffffffffffffffffffffffff169050919050565b60011515600d60009054906101000a900460ff161515146107f3576040517f08c379a00000000000000000000000000000000000000000000000000000000081526004016107ea9061317c565b60405180910390fd5b60006107fe82610d11565b90508073ffffffffffffffffffffffffffffffffffffffff168373ffffffffffffffffffffffffffffffffffffffff160361086e576040517f08c379a0000000000000000000000000000000000000000000000000000000008152600401610865906131e8565b60405180910390fd5b8073ffffffffffffffffffffffffffffffffffffffff1661088d611399565b73ffffffffffffffffffffffffffffffffffffffff1614806108bc57506108bb816108b6611399565b6111bd565b5b6108fb576040517f08c379a00000000000000000000000000000000000000000000000000000000081526004016108f290613254565b60405180910390fd5b61090583836113a1565b505050565b606060106000838152602001908152602001600020600001805461092d906130ff565b80601f0160208091040260200160405190810160405280929190818152602001828054610959906130ff565b80156109a65780601f1061097b576101008083540402835291602001916109a6565b820191906000526020600020905b81548152906001019060200180831161098957829003601f168201915b50505050509050919050565b6000600880549050905090565b60011515600d60009054906101000a900460ff16151514610a15576040517f08c379a0000000000000000000000000000000000000000000000000000000008152600401610a0c9061317c565b60405180910390fd5b610a26610a20611399565b8261145a565b610a65576040517f08c379a0000000000000000000000000000000000000000000000000000000008152600401610a5c90613254565b60405180910390fd5b610a708383836114ef565b505050565b6000610a8083610dc2565b8210610ac1576040517f08c379a0000000000000000000000000000000000000000000000000000000008152600401610ab8906132e6565b60405180910390fd5b600660008473ffffffffffffffffffffffffffffffffffffffff1673ffffffffffffffffffffffffffffffffffffffff168152602001908152602001600020600083815260200190815260200160002054905092915050565b60006011600083815260200190815260200160002060009054906101000a900473ffffffffffffffffffffffffffffffffffffffff169050919050565b6000600f60009054906101000a900473ffffffffffffffffffffffffffffffffffffffff1673ffffffffffffffffffffffffffffffffffffffff1647604051610b9f90613337565b60006040518083038185875af1925050503d8060008114610bdc576040519150601f19603f3d011682016040523d82523d6000602084013e610be1565b606091505b5050905080610bef57600080fd5b50565b610c0d83838360405180602001604052806000815250610f89565b505050565b6000610c1c6109b2565b8210610c5d576040517f08c379a0000000000000000000000000000000000000000000000000000000008152600401610c54906133be565b60405180910390fd5b60088281548110610c7157610c706133de565b5b90600052602060002001549050919050565b600c8054610c90906130ff565b80601f0160208091040260200160405190810160405280929190818152602001828054610cbc906130ff565b8015610d095780601f10610cde57610100808354040283529160200191610d09565b820191906000526020600020905b815481529060010190602001808311610cec57829003601f168201915b505050505081565b6000806002600084815260200190815260200160002060009054906101000a900473ffffffffffffffffffffffffffffffffffffffff169050600073ffffffffffffffffffffffffffffffffffffffff168173ffffffffffffffffffffffffffffffffffffffff1603610db9576040517f08c379a0000000000000000000000000000000000000000000000000000000008152600401610db090613459565b60405180910390fd5b80915050919050565b60008073ffffffffffffffffffffffffffffffffffffffff168273ffffffffffffffffffffffffffffffffffffffff1603610e32576040517f08c379a0000000000000000000000000000000000000000000000000000000008152600401610e29906134eb565b60405180910390fd5b600360008373ffffffffffffffffffffffffffffffffffffffff1673ffffffffffffffffffffffffffffffffffffffff168152602001908152602001600020549050919050565b610e81611755565b610e8b60006117d3565b565b600b8060000154905081565b6000600a60009054906101000a900473ffffffffffffffffffffffffffffffffffffffff16905090565b606060018054610ed2906130ff565b80601f0160208091040260200160405190810160405280929190818152602001828054610efe906130ff565b8015610f4b5780601f10610f2057610100808354040283529160200191610f4b565b820191906000526020600020905b815481529060010190602001808311610f2e57829003601f168201915b5050505050905090565b610f67610f60611399565b8383611899565b5050565b610f73611755565b8181600e9190610f84929190612754565b505050565b60011515600d60009054906101000a900460ff16151514610fdf576040517f08c379a0000000000000000000000000000000000000000000000000000000008152600401610fd69061317c565b60405180910390fd5b610ff0610fea611399565b8361145a565b61102f576040517f08c379a000000000000000000000000000000000000000000000000000000000815260040161102690613254565b60405180910390fd5b61103b84848484611a05565b50505050565b6110496127da565b60006040518060c0016040528084815260200161106585610d11565b73ffffffffffffffffffffffffffffffffffffffff16815260200161108985610b1a565b73ffffffffffffffffffffffffffffffffffffffff1681526020016110ad8561090a565b8152602001600c80546110bf906130ff565b80601f01602080910402602001604051908101604052809291908181526020018280546110eb906130ff565b80156111385780601f1061110d57610100808354040283529160200191611138565b820191906000526020600020905b81548152906001019060200180831161111b57829003601f168201915b5050505050815260200161114a6106c5565b815250905080915050919050565b606061116382611a61565b9050919050565b6111b88383838080601f016020809104026020016040519081016040528093929190818152602001838380828437600081840152601f19601f82011690508083019250505050505050611ac9565b505050565b6000600560008473ffffffffffffffffffffffffffffffffffffffff1673ffffffffffffffffffffffffffffffffffffffff16815260200190815260200160002060008373ffffffffffffffffffffffffffffffffffffffff1673ffffffffffffffffffffffffffffffffffffffff16815260200190815260200160002060009054906101000a900460ff16905092915050565b611259611755565b600073ffffffffffffffffffffffffffffffffffffffff168173ffffffffffffffffffffffffffffffffffffffff16036112c8576040517f08c379a00000000000000000000000000000000000000000000000000000000081526004016112bf9061357d565b60405180910390fd5b6112d1816117d3565b50565b60007f780e9d63000000000000000000000000000000000000000000000000000000007bffffffffffffffffffffffffffffffffffffffffffffffffffffffff1916827bffffffffffffffffffffffffffffffffffffffffffffffffffffffff19161480611347575061134682611b6d565b5b9050919050565b61135781611c4f565b611396576040517f08c379a000000000000000000000000000000000000000000000000000000000815260040161138d90613459565b60405180910390fd5b50565b600033905090565b816004600083815260200190815260200160002060006101000a81548173ffffffffffffffffffffffffffffffffffffffff021916908373ffffffffffffffffffffffffffffffffffffffff160217905550808273ffffffffffffffffffffffffffffffffffffffff1661141483610d11565b73ffffffffffffffffffffffffffffffffffffffff167f8c5be1e5ebec7d5bd14f71427d1e84f3dd0314c0f7b2291e5b200ac8c7c3b92560405160405180910390a45050565b60008061146683610d11565b90508073ffffffffffffffffffffffffffffffffffffffff168473ffffffffffffffffffffffffffffffffffffffff1614806114a857506114a781856111bd565b5b806114e657508373ffffffffffffffffffffffffffffffffffffffff166114ce84610757565b73ffffffffffffffffffffffffffffffffffffffff16145b91505092915050565b8273ffffffffffffffffffffffffffffffffffffffff1661150f82610d11565b73ffffffffffffffffffffffffffffffffffffffff1614611565576040517f08c379a000000000000000000000000000000000000000000000000000000000815260040161155c9061360f565b60405180910390fd5b600073ffffffffffffffffffffffffffffffffffffffff168273ffffffffffffffffffffffffffffffffffffffff16036115d4576040517f08c379a00000000000000000000000000000000000000000000000000000000081526004016115cb906136a1565b60405180910390fd5b6115df838383611cbb565b6115ea6000826113a1565b6001600360008573ffffffffffffffffffffffffffffffffffffffff1673ffffffffffffffffffffffffffffffffffffffff168152602001908152602001600020600082825461163a91906136f0565b925050819055506001600360008473ffffffffffffffffffffffffffffffffffffffff1673ffffffffffffffffffffffffffffffffffffffff16815260200190815260200160002060008282546116919190613724565b92505081905550816002600083815260200190815260200160002060006101000a81548173ffffffffffffffffffffffffffffffffffffffff021916908373ffffffffffffffffffffffffffffffffffffffff160217905550808273ffffffffffffffffffffffffffffffffffffffff168473ffffffffffffffffffffffffffffffffffffffff167fddf252ad1be2c89b69c2b068fc378daa952ba7f163c4a11628f55a4df523b3ef60405160405180910390a4611750838383611d31565b505050565b61175d611399565b73ffffffffffffffffffffffffffffffffffffffff1661177b610e99565b73ffffffffffffffffffffffffffffffffffffffff16146117d1576040517f08c379a00000000000000000000000000000000000000000000000000000000081526004016117c8906137c6565b60405180910390fd5b565b6000600a60009054906101000a900473ffffffffffffffffffffffffffffffffffffffff16905081600a60006101000a81548173ffffffffffffffffffffffffffffffffffffffff021916908373ffffffffffffffffffffffffffffffffffffffff1602179055508173ffffffffffffffffffffffffffffffffffffffff168173ffffffffffffffffffffffffffffffffffffffff167f8be0079c531659141344cd1fd0a4f28419497f9722a3daafe3b4186f6b6457e060405160405180910390a35050565b8173ffffffffffffffffffffffffffffffffffffffff168373ffffffffffffffffffffffffffffffffffffffff1603611907576040517f08c379a00000000000000000000000000000000000000000000000000000000081526004016118fe90613832565b60405180910390fd5b80600560008573ffffffffffffffffffffffffffffffffffffffff1673ffffffffffffffffffffffffffffffffffffffff16815260200190815260200160002060008473ffffffffffffffffffffffffffffffffffffffff1673ffffffffffffffffffffffffffffffffffffffff16815260200190815260200160002060006101000a81548160ff0219169083151502179055508173ffffffffffffffffffffffffffffffffffffffff168373ffffffffffffffffffffffffffffffffffffffff167f17307eab39ab6107e8899845ad3d59bd9653f200f220920489ca2b5937696c31836040516119f89190612993565b60405180910390a3505050565b611a108484846114ef565b611a1c84848484611d36565b611a5b576040517f08c379a0000000000000000000000000000000000000000000000000000000008152600401611a52906138c4565b60405180910390fd5b50505050565b6060611a6c8261134e565b6000611a76611ebd565b90506000815111611a965760405180602001604052806000815250611ac1565b80611aa084611ed4565b604051602001611ab1929190613920565b6040516020818303038152906040525b915050919050565b6000611ad5600b612034565b905081601060008381526020019081526020016000206000019080519060200190611b0192919061283c565b50826011600083815260200190815260200160002060006101000a81548173ffffffffffffffffffffffffffffffffffffffff021916908373ffffffffffffffffffffffffffffffffffffffff160217905550611b5e8382612042565b611b68600b612060565b505050565b60007f80ac58cd000000000000000000000000000000000000000000000000000000007bffffffffffffffffffffffffffffffffffffffffffffffffffffffff1916827bffffffffffffffffffffffffffffffffffffffffffffffffffffffff19161480611c3857507f5b5e139f000000000000000000000000000000000000000000000000000000007bffffffffffffffffffffffffffffffffffffffffffffffffffffffff1916827bffffffffffffffffffffffffffffffffffffffffffffffffffffffff1916145b80611c485750611c4782612076565b5b9050919050565b60008073ffffffffffffffffffffffffffffffffffffffff166002600084815260200190815260200160002060009054906101000a900473ffffffffffffffffffffffffffffffffffffffff1673ffffffffffffffffffffffffffffffffffffffff1614159050919050565b611cc68383836120e0565b600073ffffffffffffffffffffffffffffffffffffffff168373ffffffffffffffffffffffffffffffffffffffff1614611d2c576040517f54ee515100000000000000000000000000000000000000000000000000000000815260040160405180910390fd5b505050565b505050565b6000611d578473ffffffffffffffffffffffffffffffffffffffff166121f2565b15611eb0578373ffffffffffffffffffffffffffffffffffffffff1663150b7a02611d80611399565b8786866040518563ffffffff1660e01b8152600401611da29493929190613999565b6020604051808303816000875af1925050508015611dde57506040513d601f19601f82011682018060405250810190611ddb91906139fa565b60015b611e60573d8060008114611e0e576040519150601f19603f3d011682016040523d82523d6000602084013e611e13565b606091505b506000815103611e58576040517f08c379a0000000000000000000000000000000000000000000000000000000008152600401611e4f906138c4565b60405180910390fd5b805181602001fd5b63150b7a0260e01b7bffffffffffffffffffffffffffffffffffffffffffffffffffffffff1916817bffffffffffffffffffffffffffffffffffffffffffffffffffffffff191614915050611eb5565b600190505b949350505050565b606060405180602001604052806000815250905090565b606060008203611f1b576040518060400160405280600181526020017f3000000000000000000000000000000000000000000000000000000000000000815250905061202f565b600082905060005b60008214611f4d578080611f3690613a27565b915050600a82611f469190613a9e565b9150611f23565b60008167ffffffffffffffff811115611f6957611f68612d61565b5b6040519080825280601f01601f191660200182016040528015611f9b5781602001600182028036833780820191505090505b5090505b6000851461202857600182611fb491906136f0565b9150600a85611fc39190613acf565b6030611fcf9190613724565b60f81b818381518110611fe557611fe46133de565b5b60200101907effffffffffffffffffffffffffffffffffffffffffffffffffffffffffffff1916908160001a905350600a856120219190613a9e565b9450611f9f565b8093505050505b919050565b600081600001549050919050565b61205c828260405180602001604052806000815250612215565b5050565b6001816000016000828254019250508190555050565b60007f01ffc9a7000000000000000000000000000000000000000000000000000000007bffffffffffffffffffffffffffffffffffffffffffffffffffffffff1916827bffffffffffffffffffffffffffffffffffffffffffffffffffffffff1916149050919050565b6120eb838383612270565b600073ffffffffffffffffffffffffffffffffffffffff168373ffffffffffffffffffffffffffffffffffffffff160361212d5761212881612275565b61216c565b8173ffffffffffffffffffffffffffffffffffffffff168373ffffffffffffffffffffffffffffffffffffffff161461216b5761216a83826122be565b5b5b600073ffffffffffffffffffffffffffffffffffffffff168273ffffffffffffffffffffffffffffffffffffffff16036121ae576121a98161242b565b6121ed565b8273ffffffffffffffffffffffffffffffffffffffff168273ffffffffffffffffffffffffffffffffffffffff16146121ec576121eb82826124fc565b5b5b505050565b6000808273ffffffffffffffffffffffffffffffffffffffff163b119050919050565b61221f838361257b565b61222c6000848484611d36565b61226b576040517f08c379a0000000000000000000000000000000000000000000000000000000008152600401612262906138c4565b60405180910390fd5b505050565b505050565b6008805490506009600083815260200190815260200160002081905550600881908060018154018082558091505060019003906000526020600020016000909190919091505550565b600060016122cb84610dc2565b6122d591906136f0565b90506000600760008481526020019081526020016000205490508181146123ba576000600660008673ffffffffffffffffffffffffffffffffffffffff1673ffffffffffffffffffffffffffffffffffffffff168152602001908152602001600020600084815260200190815260200160002054905080600660008773ffffffffffffffffffffffffffffffffffffffff1673ffffffffffffffffffffffffffffffffffffffff168152602001908152602001600020600084815260200190815260200160002081905550816007600083815260200190815260200160002081905550505b6007600084815260200190815260200160002060009055600660008573ffffffffffffffffffffffffffffffffffffffff1673ffffffffffffffffffffffffffffffffffffffff16815260200190815260200160002060008381526020019081526020016000206000905550505050565b6000600160088054905061243f91906136f0565b905060006009600084815260200190815260200160002054905060006008838154811061246f5761246e6133de565b5b906000526020600020015490508060088381548110612491576124906133de565b5b9060005260206000200181905550816009600083815260200190815260200160002081905550600960008581526020019081526020016000206000905560088054806124e0576124df613b00565b5b6001900381819060005260206000200160009055905550505050565b600061250783610dc2565b905081600660008573ffffffffffffffffffffffffffffffffffffffff1673ffffffffffffffffffffffffffffffffffffffff168152602001908152602001600020600083815260200190815260200160002081905550806007600084815260200190815260200160002081905550505050565b600073ffffffffffffffffffffffffffffffffffffffff168273ffffffffffffffffffffffffffffffffffffffff16036125ea576040517f08c379a00000000000000000000000000000000000000000000000000000000081526004016125e190613b7b565b60405180910390fd5b6125f381611c4f565b15612633576040517f08c379a000000000000000000000000000000000000000000000000000000000815260040161262a90613be7565b60405180910390fd5b61263f60008383611cbb565b6001600360008473ffffffffffffffffffffffffffffffffffffffff1673ffffffffffffffffffffffffffffffffffffffff168152602001908152602001600020600082825461268f9190613724565b92505081905550816002600083815260200190815260200160002060006101000a81548173ffffffffffffffffffffffffffffffffffffffff021916908373ffffffffffffffffffffffffffffffffffffffff160217905550808273ffffffffffffffffffffffffffffffffffffffff16600073ffffffffffffffffffffffffffffffffffffffff167fddf252ad1be2c89b69c2b068fc378daa952ba7f163c4a11628f55a4df523b3ef60405160405180910390a461275060008383611d31565b5050565b828054612760906130ff565b90600052602060002090601f01602090048101928261278257600085556127c9565b82601f1061279b57803560ff19168380011785556127c9565b828001600101855582156127c9579182015b828111156127c85782358255916020019190600101906127ad565b5b5090506127d691906128c2565b5090565b6040518060c0016040528060008152602001600073ffffffffffffffffffffffffffffffffffffffff168152602001600073ffffffffffffffffffffffffffffffffffffffff1681526020016060815260200160608152602001606081525090565b828054612848906130ff565b90600052602060002090601f01602090048101928261286a57600085556128b1565b82601f1061288357805160ff19168380011785556128b1565b828001600101855582156128b1579182015b828111156128b0578251825591602001919060010190612895565b5b5090506128be91906128c2565b5090565b5b808211156128db5760008160009055506001016128c3565b5090565b6000604051905090565b600080fd5b600080fd5b60007fffffffff0000000000000000000000000000000000000000000000000000000082169050919050565b612928816128f3565b811461293357600080fd5b50565b6000813590506129458161291f565b92915050565b600060208284031215612961576129606128e9565b5b600061296f84828501612936565b91505092915050565b60008115159050919050565b61298d81612978565b82525050565b60006020820190506129a86000830184612984565b92915050565b600081519050919050565b600082825260208201905092915050565b60005b838110156129e85780820151818401526020810190506129cd565b838111156129f7576000848401525b50505050565b6000601f19601f8301169050919050565b6000612a19826129ae565b612a2381856129b9565b9350612a338185602086016129ca565b612a3c816129fd565b840191505092915050565b60006020820190508181036000830152612a618184612a0e565b905092915050565b6000819050919050565b612a7c81612a69565b8114612a8757600080fd5b50565b600081359050612a9981612a73565b92915050565b600060208284031215612ab557612ab46128e9565b5b6000612ac384828501612a8a565b91505092915050565b600073ffffffffffffffffffffffffffffffffffffffff82169050919050565b6000612af782612acc565b9050919050565b612b0781612aec565b82525050565b6000602082019050612b226000830184612afe565b92915050565b612b3181612aec565b8114612b3c57600080fd5b50565b600081359050612b4e81612b28565b92915050565b60008060408385031215612b6b57612b6a6128e9565b5b6000612b7985828601612b3f565b9250506020612b8a85828601612a8a565b9150509250929050565b612b9d81612a69565b82525050565b6000602082019050612bb86000830184612b94565b92915050565b600080600060608486031215612bd757612bd66128e9565b5b6000612be586828701612b3f565b9350506020612bf686828701612b3f565b9250506040612c0786828701612a8a565b9150509250925092565b600060208284031215612c2757612c266128e9565b5b6000612c3584828501612b3f565b91505092915050565b612c4781612978565b8114612c5257600080fd5b50565b600081359050612c6481612c3e565b92915050565b60008060408385031215612c8157612c806128e9565b5b6000612c8f85828601612b3f565b9250506020612ca085828601612c55565b9150509250929050565b600080fd5b600080fd5b600080fd5b60008083601f840112612ccf57612cce612caa565b5b8235905067ffffffffffffffff811115612cec57612ceb612caf565b5b602083019150836001820283011115612d0857612d07612cb4565b5b9250929050565b60008060208385031215612d2657612d256128e9565b5b600083013567ffffffffffffffff811115612d4457612d436128ee565b5b612d5085828601612cb9565b92509250509250929050565b600080fd5b7f4e487b7100000000000000000000000000000000000000000000000000000000600052604160045260246000fd5b612d99826129fd565b810181811067ffffffffffffffff82111715612db857612db7612d61565b5b80604052505050565b6000612dcb6128df565b9050612dd78282612d90565b919050565b600067ffffffffffffffff821115612df757612df6612d61565b5b612e00826129fd565b9050602081019050919050565b82818337600083830152505050565b6000612e2f612e2a84612ddc565b612dc1565b905082815260208101848484011115612e4b57612e4a612d5c565b5b612e56848285612e0d565b509392505050565b600082601f830112612e7357612e72612caa565b5b8135612e83848260208601612e1c565b91505092915050565b60008060008060808587031215612ea657612ea56128e9565b5b6000612eb487828801612b3f565b9450506020612ec587828801612b3f565b9350506040612ed687828801612a8a565b925050606085013567ffffffffffffffff811115612ef757612ef66128ee565b5b612f0387828801612e5e565b91505092959194509250565b612f1881612a69565b82525050565b612f2781612aec565b82525050565b600082825260208201905092915050565b6000612f49826129ae565b612f538185612f2d565b9350612f638185602086016129ca565b612f6c816129fd565b840191505092915050565b600060c083016000830151612f8f6000860182612f0f565b506020830151612fa26020860182612f1e565b506040830151612fb56040860182612f1e565b5060608301518482036060860152612fcd8282612f3e565b91505060808301518482036080860152612fe78282612f3e565b91505060a083015184820360a08601526130018282612f3e565b9150508091505092915050565b600060208201905081810360008301526130288184612f77565b905092915050565b600080600060408486031215613049576130486128e9565b5b600061305786828701612b3f565b935050602084013567ffffffffffffffff811115613078576130776128ee565b5b61308486828701612cb9565b92509250509250925092565b600080604083850312156130a7576130a66128e9565b5b60006130b585828601612b3f565b92505060206130c685828601612b3f565b9150509250929050565b7f4e487b7100000000000000000000000000000000000000000000000000000000600052602260045260246000fd5b6000600282049050600182168061311757607f821691505b60208210810361312a576131296130d0565b5b50919050565b7f6e6f74207472616e7366657261626c6500000000000000000000000000000000600082015250565b60006131666010836129b9565b915061317182613130565b602082019050919050565b6000602082019050818103600083015261319581613159565b9050919050565b7f617070726f76616c20746f2063757272656e74206f776e657200000000000000600082015250565b60006131d26019836129b9565b91506131dd8261319c565b602082019050919050565b60006020820190508181036000830152613201816131c5565b9050919050565b7f63616c6c6572206973206e6f74206f776e657200000000000000000000000000600082015250565b600061323e6013836129b9565b915061324982613208565b602082019050919050565b6000602082019050818103600083015261326d81613231565b9050919050565b7f455243373231456e756d657261626c653a206f776e657220696e646578206f7560008201527f74206f6620626f756e6473000000000000000000000000000000000000000000602082015250565b60006132d0602b836129b9565b91506132db82613274565b604082019050919050565b600060208201905081810360008301526132ff816132c3565b9050919050565b600081905092915050565b50565b6000613321600083613306565b915061332c82613311565b600082019050919050565b600061334282613314565b9150819050919050565b7f455243373231456e756d657261626c653a20676c6f62616c20696e646578206f60008201527f7574206f6620626f756e64730000000000000000000000000000000000000000602082015250565b60006133a8602c836129b9565b91506133b38261334c565b604082019050919050565b600060208201905081810360008301526133d78161339b565b9050919050565b7f4e487b7100000000000000000000000000000000000000000000000000000000600052603260045260246000fd5b7f4552433732313a20696e76616c696420746f6b656e2049440000000000000000600082015250565b60006134436018836129b9565b915061344e8261340d565b602082019050919050565b6000602082019050818103600083015261347281613436565b9050919050565b7f4552433732313a2061646472657373207a65726f206973206e6f74206120766160008201527f6c6964206f776e65720000000000000000000000000000000000000000000000602082015250565b60006134d56029836129b9565b91506134e082613479565b604082019050919050565b60006020820190508181036000830152613504816134c8565b9050919050565b7f4f776e61626c653a206e6577206f776e657220697320746865207a65726f206160008201527f6464726573730000000000000000000000000000000000000000000000000000602082015250565b60006135676026836129b9565b91506135728261350b565b604082019050919050565b600060208201905081810360008301526135968161355a565b9050919050565b7f4552433732313a207472616e736665722066726f6d20696e636f72726563742060008201527f6f776e6572000000000000000000000000000000000000000000000000000000602082015250565b60006135f96025836129b9565b91506136048261359d565b604082019050919050565b60006020820190508181036000830152613628816135ec565b9050919050565b7f4552433732313a207472616e7366657220746f20746865207a65726f2061646460008201527f7265737300000000000000000000000000000000000000000000000000000000602082015250565b600061368b6024836129b9565b91506136968261362f565b604082019050919050565b600060208201905081810360008301526136ba8161367e565b9050919050565b7f4e487b7100000000000000000000000000000000000000000000000000000000600052601160045260246000fd5b60006136fb82612a69565b915061370683612a69565b925082821015613719576137186136c1565b5b828203905092915050565b600061372f82612a69565b915061373a83612a69565b9250827fffffffffffffffffffffffffffffffffffffffffffffffffffffffffffffffff0382111561376f5761376e6136c1565b5b828201905092915050565b7f4f776e61626c653a2063616c6c6572206973206e6f7420746865206f776e6572600082015250565b60006137b06020836129b9565b91506137bb8261377a565b602082019050919050565b600060208201905081810360008301526137df816137a3565b9050919050565b7f4552433732313a20617070726f766520746f2063616c6c657200000000000000600082015250565b600061381c6019836129b9565b9150613827826137e6565b602082019050919050565b6000602082019050818103600083015261384b8161380f565b9050919050565b7f4552433732313a207472616e7366657220746f206e6f6e20455243373231526560008201527f63656976657220696d706c656d656e7465720000000000000000000000000000602082015250565b60006138ae6032836129b9565b91506138b982613852565b604082019050919050565b600060208201905081810360008301526138dd816138a1565b9050919050565b600081905092915050565b60006138fa826129ae565b61390481856138e4565b93506139148185602086016129ca565b80840191505092915050565b600061392c82856138ef565b915061393882846138ef565b91508190509392505050565b600081519050919050565b600082825260208201905092915050565b600061396b82613944565b613975818561394f565b93506139858185602086016129ca565b61398e816129fd565b840191505092915050565b60006080820190506139ae6000830187612afe565b6139bb6020830186612afe565b6139c86040830185612b94565b81810360608301526139da8184613960565b905095945050505050565b6000815190506139f48161291f565b92915050565b600060208284031215613a1057613a0f6128e9565b5b6000613a1e848285016139e5565b91505092915050565b6000613a3282612a69565b91507fffffffffffffffffffffffffffffffffffffffffffffffffffffffffffffffff8203613a6457613a636136c1565b5b600182019050919050565b7f4e487b7100000000000000000000000000000000000000000000000000000000600052601260045260246000fd5b6000613aa982612a69565b9150613ab483612a69565b925082613ac457613ac3613a6f565b5b828204905092915050565b6000613ada82612a69565b9150613ae583612a69565b925082613af557613af4613a6f565b5b828206905092915050565b7f4e487b7100000000000000000000000000000000000000000000000000000000600052603160045260246000fd5b7f4552433732313a206d696e7420746f20746865207a65726f2061646472657373600082015250565b6000613b656020836129b9565b9150613b7082613b2f565b602082019050919050565b60006020820190508181036000830152613b9481613b58565b9050919050565b7f4552433732313a20746f6b656e20616c7265616479206d696e74656400000000600082015250565b6000613bd1601c836129b9565b9150613bdc82613b9b565b602082019050919050565b60006020820190508181036000830152613c0081613bc4565b905091905056fea26469706673582212207807273d49eae6f4ac2a64e0fd9c80973493ae8f74eaded7c2d76b7336d841ba64736f6c634300080d0033a2646970667358221220d446e3ae2169a95af999ba76c20e4c143af2f523956daa484bd510b42bdf184b64736f6c634300080d0033",
  "linkReferences": {},
  "deployedLinkReferences": {}
}