{
  "_format": "hh-sol-artifact-1",
  "contractName": "ProjectFactory",
  "sourceName": "contracts/ProjectFactory.sol",
  "abi": [
    {
      "inputs": [],
      "stateMutability": "nonpayable",
      "type": "constructor"
    },
    {
      "anonymous": false,
      "inputs": [
        {
          "indexed": false,
          "internalType": "address",
          "name": "projectAddress",
          "type": "address"
        },
        {
          "indexed": false,
          "internalType": "address",
          "name": "contributor",
          "type": "address"
        },
        {
          "indexed": false,
          "internalType": "uint256",
          "name": "amount",
          "type": "uint256"
        }
      ],
      "name": "ContributionSent",
      "type": "event"
    },
    {
      "anonymous": false,
      "inputs": [
        {
          "indexed": false,
          "internalType": "string",
          "name": "message",
          "type": "string"
        }
      ],
      "name": "Failure",
      "type": "event"
    },
    {
      "anonymous": false,
      "inputs": [
        {
          "indexed": true,
          "internalType": "address",
          "name": "previousOwner",
          "type": "address"
        },
        {
          "indexed": true,
          "internalType": "address",
          "name": "newOwner",
          "type": "address"
        }
      ],
      "name": "OwnershipTransferred",
      "type": "event"
    },
    {
      "anonymous": false,
      "inputs": [
        {
          "indexed": false,
          "internalType": "uint256",
          "name": "id",
          "type": "uint256"
        },
        {
          "indexed": false,
          "internalType": "string",
          "name": "title",
          "type": "string"
        },
        {
          "indexed": false,
          "internalType": "address",
          "name": "addr",
          "type": "address"
        },
        {
          "indexed": false,
          "internalType": "address",
          "name": "creator",
          "type": "address"
        }
      ],
      "name": "ProjectCreated",
      "type": "event"
    },
    {
      "stateMutability": "payable",
      "type": "fallback"
    },
    {
      "inputs": [
        {
          "internalType": "address payable",
          "name": "_projectAddress",
          "type": "address"
        }
      ],
      "name": "contribute",
      "outputs": [
        {
          "internalType": "bool",
          "name": "successful",
          "type": "bool"
        }
      ],
      "stateMutability": "payable",
      "type": "function"
    },
    {
      "inputs": [
        {
          "internalType": "uint256",
          "name": "_fundingGoal",
          "type": "uint256"
        },
        {
          "internalType": "uint256",
          "name": "_deadline",
          "type": "uint256"
        },
        {
          "internalType": "string",
          "name": "_title",
          "type": "string"
        },
        {
          "internalType": "string",
          "name": "_metaUrl",
          "type": "string"
        }
      ],
      "name": "createProject",
      "outputs": [
        {
          "internalType": "contract Project",
          "name": "projectAddress",
          "type": "address"
        }
      ],
      "stateMutability": "payable",
      "type": "function"
    },
    {
      "inputs": [],
      "name": "fetchProjectItems",
      "outputs": [
        {
          "components": [
            {
              "internalType": "string",
              "name": "title",
              "type": "string"
            },
            {
              "internalType": "uint256",
              "name": "goal",
              "type": "uint256"
            },
            {
              "internalType": "uint256",
              "name": "deadline",
              "type": "uint256"
            },
            {
              "internalType": "address payable",
              "name": "creator",
              "type": "address"
            },
            {
              "internalType": "uint256",
              "name": "totalFunding",
              "type": "uint256"
            },
            {
              "internalType": "uint256",
              "name": "contributionsCount",
              "type": "uint256"
            },
            {
              "internalType": "uint256",
              "name": "contributorsCount",
              "type": "uint256"
            },
            {
              "internalType": "address payable",
              "name": "fundingHub",
              "type": "address"
            },
            {
              "internalType": "address payable",
              "name": "projectAddress",
              "type": "address"
            },
            {
              "internalType": "string",
              "name": "metaUrl",
              "type": "string"
            }
          ],
          "internalType": "struct ProjectFactory.ProjectItem[]",
          "name": "",
          "type": "tuple[]"
        }
      ],
      "stateMutability": "view",
      "type": "function"
    },
    {
      "inputs": [],
      "name": "kill",
      "outputs": [],
      "stateMutability": "nonpayable",
      "type": "function"
    },
    {
      "inputs": [],
      "name": "numOfProjects",
      "outputs": [
        {
          "internalType": "uint256",
          "name": "",
          "type": "uint256"
        }
      ],
      "stateMutability": "view",
      "type": "function"
    },
    {
      "inputs": [],
      "name": "owner",
      "outputs": [
        {
          "internalType": "address",
          "name": "",
          "type": "address"
        }
      ],
      "stateMutability": "view",
      "type": "function"
    },
    {
      "inputs": [
        {
          "internalType": "uint256",
          "name": "",
          "type": "uint256"
        }
      ],
      "name": "projects",
      "outputs": [
        {
          "internalType": "address",
          "name": "",
          "type": "address"
        }
      ],
      "stateMutability": "view",
      "type": "function"
    },
    {
      "inputs": [],
      "name": "renounceOwnership",
      "outputs": [],
      "stateMutability": "nonpayable",
      "type": "function"
    },
    {
      "inputs": [
        {
          "internalType": "address",
          "name": "newOwner",
          "type": "address"
        }
      ],
      "name": "transferOwnership",
      "outputs": [],
      "stateMutability": "nonpayable",
      "type": "function"
    },
    {
      "stateMutability": "payable",
      "type": "receive"
    }
  ],
  "bytecode": "0x60806040523480156200001157600080fd5b5062000032620000266200005160201b60201c565b6200005960201b60201c565b60006001819055506200004b336200011d60201b60201c565b62000388565b600033905090565b60008060009054906101000a900473ffffffffffffffffffffffffffffffffffffffff169050816000806101000a81548173ffffffffffffffffffffffffffffffffffffffff021916908373ffffffffffffffffffffffffffffffffffffffff1602179055508173ffffffffffffffffffffffffffffffffffffffff168173ffffffffffffffffffffffffffffffffffffffff167f8be0079c531659141344cd1fd0a4f28419497f9722a3daafe3b4186f6b6457e060405160405180910390a35050565b6200012d620001b360201b60201c565b600073ffffffffffffffffffffffffffffffffffffffff168173ffffffffffffffffffffffffffffffffffffffff16036200019f576040517f08c379a00000000000000000000000000000000000000000000000000000000081526004016200019690620002f4565b60405180910390fd5b620001b0816200005960201b60201c565b50565b620001c36200005160201b60201c565b73ffffffffffffffffffffffffffffffffffffffff16620001e96200024460201b60201c565b73ffffffffffffffffffffffffffffffffffffffff161462000242576040517f08c379a0000000000000000000000000000000000000000000000000000000008152600401620002399062000366565b60405180910390fd5b565b60008060009054906101000a900473ffffffffffffffffffffffffffffffffffffffff16905090565b600082825260208201905092915050565b7f4f776e61626c653a206e6577206f776e657220697320746865207a65726f206160008201527f6464726573730000000000000000000000000000000000000000000000000000602082015250565b6000620002dc6026836200026d565b9150620002e9826200027e565b604082019050919050565b600060208201905081810360008301526200030f81620002cd565b9050919050565b7f4f776e61626c653a2063616c6c6572206973206e6f7420746865206f776e6572600082015250565b60006200034e6020836200026d565b91506200035b8262000316565b602082019050919050565b6000602082019050818103600083015262000381816200033f565b9050919050565b61425980620003986000396000f3fe608060405260043610620000975760003560e01c806383d3cfd3116200006157806383d3cfd3146200014f5780638da5cb5b146200017f578063b4aeabbe14620001af578063db94cc5814620001e5578063f2fde38b1462000215576200009f565b8063107046bd14620000a157806341c0e1b514620000e5578063715018a614620000ff57806373e888fd1462000119576200009f565b366200009f57005b005b348015620000ae57600080fd5b50620000cd6004803603810190620000c791906200116b565b62000243565b604051620000dc9190620011e2565b60405180910390f35b348015620000f257600080fd5b50620000fd62000276565b005b3480156200010c57600080fd5b5062000117620002a2565b005b62000137600480360381019062000131919062001244565b620002ba565b60405162000146919062001293565b60405180910390f35b3480156200015c57600080fd5b506200016762000506565b604051620001769190620012c1565b60405180910390f35b3480156200018c57600080fd5b50620001976200050c565b604051620001a69190620011e2565b60405180910390f35b620001cd6004803603810190620001c7919062001440565b62000535565b604051620001dc91906200155b565b60405180910390f35b348015620001f257600080fd5b50620001fd620006da565b6040516200020c9190620017f2565b60405180910390f35b3480156200022257600080fd5b506200024160048036038101906200023b919062001847565b62000a34565b005b60026020528060005260406000206000915054906101000a900473ffffffffffffffffffffffffffffffffffffffff1681565b6200028062000abe565b6200028a6200050c565b73ffffffffffffffffffffffffffffffffffffffff16ff5b620002ac62000abe565b620002b8600062000b43565b565b600080341162000301576040517f08c379a0000000000000000000000000000000000000000000000000000000008152600401620002f890620018da565b60405180910390fd5b6000829050600073ffffffffffffffffffffffffffffffffffffffff168173ffffffffffffffffffffffffffffffffffffffff1663f9b8057f6040518163ffffffff1660e01b8152600401602060405180830381865afa1580156200036a573d6000803e3d6000fd5b505050506040513d601f19601f8201168201806040525081019062000390919062001913565b73ffffffffffffffffffffffffffffffffffffffff1603620003e9576040517f08c379a0000000000000000000000000000000000000000000000000000000008152600401620003e09062001995565b60405180910390fd5b8073ffffffffffffffffffffffffffffffffffffffff16632302440834336040518363ffffffff1660e01b8152600401620004259190620011e2565b60206040518083038185885af115801562000444573d6000803e3d6000fd5b50505050506040513d601f19601f820116820180604052508101906200046b9190620019e8565b15620004c4577fb29ffc248a93a760b2121e1b4abc59e6cfb07ce18fa99164f7eb44cbee181937833334604051620004a69392919062001a53565b60405180910390a1620004b98362000c07565b600191505062000501565b7ffd5de27667e5407df5be0b6efb7f86ae8c40433040399a5e4d36a46ccc50638d604051620004f39062001b06565b60405180910390a160009150505b919050565b60015481565b60008060009054906101000a900473ffffffffffffffffffffffffffffffffffffffff16905090565b6000808510156200057d576040517f08c379a0000000000000000000000000000000000000000000000000000000008152600401620005749062001b78565b60405180910390fd5b834310620005c2576040517f08c379a0000000000000000000000000000000000000000000000000000000008152600401620005b99062001bea565b60405180910390fd5b60006001548686863387604051620005da9062000fc9565b620005eb9695949392919062001c4d565b604051809103906000f08015801562000608573d6000803e3d6000fd5b5090508060026000600154815260200190815260200160002060006101000a81548173ffffffffffffffffffffffffffffffffffffffff021916908373ffffffffffffffffffffffffffffffffffffffff1602179055506200066a8162000d1a565b7ff66dc799095cc7aa9aba08c4c9adf3aa8450ab18911399506b8e552f841fcfb060015485836200069a6200050c565b604051620006ac949392919062001cc8565b60405180910390a160016000815480929190620006c99062001d4b565b919050555080915050949350505050565b6060600060015490506000808267ffffffffffffffff811115620007035762000702620012f9565b5b6040519080825280602002602001820160405280156200074057816020015b6200072c62000fd7565b815260200190600190039081620007225790505b50905060005b8381101562000a2a576000819050600060036000838152602001908152602001600020905080604051806101400160405290816000820180546200078a9062001dc7565b80601f0160208091040260200160405190810160405280929190818152602001828054620007b89062001dc7565b8015620008095780601f10620007dd5761010080835404028352916020019162000809565b820191906000526020600020905b815481529060010190602001808311620007eb57829003601f168201915b5050505050815260200160018201548152602001600282015481526020016003820160009054906101000a900473ffffffffffffffffffffffffffffffffffffffff1673ffffffffffffffffffffffffffffffffffffffff1673ffffffffffffffffffffffffffffffffffffffff1681526020016004820154815260200160058201548152602001600682015481526020016007820160009054906101000a900473ffffffffffffffffffffffffffffffffffffffff1673ffffffffffffffffffffffffffffffffffffffff1673ffffffffffffffffffffffffffffffffffffffff1681526020016008820160009054906101000a900473ffffffffffffffffffffffffffffffffffffffff1673ffffffffffffffffffffffffffffffffffffffff1673ffffffffffffffffffffffffffffffffffffffff168152602001600982018054620009589062001dc7565b80601f0160208091040260200160405190810160405280929190818152602001828054620009869062001dc7565b8015620009d75780601f10620009ab57610100808354040283529160200191620009d7565b820191906000526020600020905b815481529060010190602001808311620009b957829003601f168201915b505050505081525050848681518110620009f657620009f562001dfc565b5b602002602001018190525060018562000a10919062001e2b565b94505050808062000a219062001d4b565b91505062000746565b5080935050505090565b62000a3e62000abe565b600073ffffffffffffffffffffffffffffffffffffffff168173ffffffffffffffffffffffffffffffffffffffff160362000ab0576040517f08c379a000000000000000000000000000000000000000000000000000000000815260040162000aa79062001efe565b60405180910390fd5b62000abb8162000b43565b50565b62000ac862000fc1565b73ffffffffffffffffffffffffffffffffffffffff1662000ae86200050c565b73ffffffffffffffffffffffffffffffffffffffff161462000b41576040517f08c379a000000000000000000000000000000000000000000000000000000000815260040162000b389062001f70565b60405180910390fd5b565b60008060009054906101000a900473ffffffffffffffffffffffffffffffffffffffff169050816000806101000a81548173ffffffffffffffffffffffffffffffffffffffff021916908373ffffffffffffffffffffffffffffffffffffffff1602179055508173ffffffffffffffffffffffffffffffffffffffff168173ffffffffffffffffffffffffffffffffffffffff167f8be0079c531659141344cd1fd0a4f28419497f9722a3daafe3b4186f6b6457e060405160405180910390a35050565b60008190506000806000808473ffffffffffffffffffffffffffffffffffffffff16636e57b7006040518163ffffffff1660e01b8152600401600060405180830381865afa15801562000c5e573d6000803e3d6000fd5b505050506040513d6000823e3d601f19601f8201168201806040525081019062000c89919062002027565b9091929394959697985090919293949596975090919293949596509091929394955090915090505080945081955082965083975050505050826003600086815260200190815260200160002060040181905550816003600086815260200190815260200160002060050181905550806003600086815260200190815260200160002060060181905550505050505050565b600081905060006060600080600060608673ffffffffffffffffffffffffffffffffffffffff16636e57b7006040518163ffffffff1660e01b8152600401600060405180830381865afa15801562000d76573d6000803e3d6000fd5b505050506040513d6000823e3d601f19601f8201168201806040525081019062000da1919062002027565b9091929394509091929350909192509091509050809650819750829850839950849a50859b505050505050506040518061014001604052808681526020018581526020018481526020018373ffffffffffffffffffffffffffffffffffffffff1681526020016000815260200160008152602001600081526020013073ffffffffffffffffffffffffffffffffffffffff1681526020018973ffffffffffffffffffffffffffffffffffffffff16815260200182815250600360006001548152602001908152602001600020600082015181600001908051906020019062000e8b9291906200106c565b50602082015181600101556040820151816002015560608201518160030160006101000a81548173ffffffffffffffffffffffffffffffffffffffff021916908373ffffffffffffffffffffffffffffffffffffffff1602179055506080820151816004015560a0820151816005015560c0820151816006015560e08201518160070160006101000a81548173ffffffffffffffffffffffffffffffffffffffff021916908373ffffffffffffffffffffffffffffffffffffffff1602179055506101008201518160080160006101000a81548173ffffffffffffffffffffffffffffffffffffffff021916908373ffffffffffffffffffffffffffffffffffffffff16021790555061012082015181600901908051906020019062000fb39291906200106c565b509050505050505050505050565b600033905090565b6120b1806200217383390190565b604051806101400160405280606081526020016000815260200160008152602001600073ffffffffffffffffffffffffffffffffffffffff168152602001600081526020016000815260200160008152602001600073ffffffffffffffffffffffffffffffffffffffff168152602001600073ffffffffffffffffffffffffffffffffffffffff168152602001606081525090565b8280546200107a9062001dc7565b90600052602060002090601f0160209004810192826200109e5760008555620010ea565b82601f10620010b957805160ff1916838001178555620010ea565b82800160010185558215620010ea579182015b82811115620010e9578251825591602001919060010190620010cc565b5b509050620010f99190620010fd565b5090565b5b8082111562001118576000816000905550600101620010fe565b5090565b6000604051905090565b600080fd5b600080fd5b6000819050919050565b620011458162001130565b81146200115157600080fd5b50565b60008135905062001165816200113a565b92915050565b60006020828403121562001184576200118362001126565b5b6000620011948482850162001154565b91505092915050565b600073ffffffffffffffffffffffffffffffffffffffff82169050919050565b6000620011ca826200119d565b9050919050565b620011dc81620011bd565b82525050565b6000602082019050620011f96000830184620011d1565b92915050565b60006200120c826200119d565b9050919050565b6200121e81620011ff565b81146200122a57600080fd5b50565b6000813590506200123e8162001213565b92915050565b6000602082840312156200125d576200125c62001126565b5b60006200126d848285016200122d565b91505092915050565b60008115159050919050565b6200128d8162001276565b82525050565b6000602082019050620012aa600083018462001282565b92915050565b620012bb8162001130565b82525050565b6000602082019050620012d86000830184620012b0565b92915050565b600080fd5b600080fd5b6000601f19601f8301169050919050565b7f4e487b7100000000000000000000000000000000000000000000000000000000600052604160045260246000fd5b6200133382620012e8565b810181811067ffffffffffffffff82111715620013555762001354620012f9565b5b80604052505050565b60006200136a6200111c565b905062001378828262001328565b919050565b600067ffffffffffffffff8211156200139b576200139a620012f9565b5b620013a682620012e8565b9050602081019050919050565b82818337600083830152505050565b6000620013d9620013d3846200137d565b6200135e565b905082815260208101848484011115620013f857620013f7620012e3565b5b62001405848285620013b3565b509392505050565b600082601f830112620014255762001424620012de565b5b813562001437848260208601620013c2565b91505092915050565b600080600080608085870312156200145d576200145c62001126565b5b60006200146d8782880162001154565b9450506020620014808782880162001154565b935050604085013567ffffffffffffffff811115620014a457620014a36200112b565b5b620014b2878288016200140d565b925050606085013567ffffffffffffffff811115620014d657620014d56200112b565b5b620014e4878288016200140d565b91505092959194509250565b6000819050919050565b60006200151b620015156200150f846200119d565b620014f0565b6200119d565b9050919050565b60006200152f82620014fa565b9050919050565b6000620015438262001522565b9050919050565b620015558162001536565b82525050565b60006020820190506200157260008301846200154a565b92915050565b600081519050919050565b600082825260208201905092915050565b6000819050602082019050919050565b600081519050919050565b600082825260208201905092915050565b60005b83811015620015e0578082015181840152602081019050620015c3565b83811115620015f0576000848401525b50505050565b60006200160382620015a4565b6200160f8185620015af565b935062001621818560208601620015c0565b6200162c81620012e8565b840191505092915050565b620016428162001130565b82525050565b6200165381620011ff565b82525050565b6000610140830160008301518482036000860152620016798282620015f6565b915050602083015162001690602086018262001637565b506040830151620016a5604086018262001637565b506060830151620016ba606086018262001648565b506080830151620016cf608086018262001637565b5060a0830151620016e460a086018262001637565b5060c0830151620016f960c086018262001637565b5060e08301516200170e60e086018262001648565b506101008301516200172561010086018262001648565b50610120830151848203610120860152620017418282620015f6565b9150508091505092915050565b60006200175c838362001659565b905092915050565b6000602082019050919050565b60006200177e8262001578565b6200178a818562001583565b9350836020820285016200179e8562001594565b8060005b85811015620017e05784840389528151620017be85826200174e565b9450620017cb8362001764565b925060208a01995050600181019050620017a2565b50829750879550505050505092915050565b600060208201905081810360008301526200180e818462001771565b905092915050565b6200182181620011bd565b81146200182d57600080fd5b50565b600081359050620018418162001816565b92915050565b60006020828403121562001860576200185f62001126565b5b6000620018708482850162001830565b91505092915050565b600082825260208201905092915050565b7f6c657373207468616e2030207765690000000000000000000000000000000000600082015250565b6000620018c2600f8362001879565b9150620018cf826200188a565b602082019050919050565b60006020820190508181036000830152620018f581620018b3565b9050919050565b6000815190506200190d8162001816565b92915050565b6000602082840312156200192c576200192b62001126565b5b60006200193c84828501620018fc565b91505092915050565b7f61646472657373206e6f7420666f756e64000000000000000000000000000000600082015250565b60006200197d60118362001879565b91506200198a8262001945565b602082019050919050565b60006020820190508181036000830152620019b0816200196e565b9050919050565b620019c28162001276565b8114620019ce57600080fd5b50565b600081519050620019e281620019b7565b92915050565b60006020828403121562001a015762001a0062001126565b5b600062001a1184828501620019d1565b91505092915050565b600062001a2782620014fa565b9050919050565b600062001a3b8262001a1a565b9050919050565b62001a4d8162001a2e565b82525050565b600060608201905062001a6a600083018662001a42565b62001a796020830185620011d1565b62001a886040830184620012b0565b949350505050565b7f436f6e747269627574696f6e20646964206e6f742073656e642073756363657360008201527f7366756c6c790000000000000000000000000000000000000000000000000000602082015250565b600062001aee60268362001879565b915062001afb8262001a90565b604082019050919050565b6000602082019050818103600083015262001b218162001adf565b9050919050565b7f6c657373207468616e2030000000000000000000000000000000000000000000600082015250565b600062001b60600b8362001879565b915062001b6d8262001b28565b602082019050919050565b6000602082019050818103600083015262001b938162001b51565b9050919050565b7f6c657373207468616e2063757272656e7420626c6f636b000000000000000000600082015250565b600062001bd260178362001879565b915062001bdf8262001b9a565b602082019050919050565b6000602082019050818103600083015262001c058162001bc3565b9050919050565b600062001c1982620015a4565b62001c25818562001879565b935062001c37818560208601620015c0565b62001c4281620012e8565b840191505092915050565b600060c08201905062001c646000830189620012b0565b62001c736020830188620012b0565b62001c826040830187620012b0565b818103606083015262001c96818662001c0c565b905062001ca76080830185620011d1565b81810360a083015262001cbb818462001c0c565b9050979650505050505050565b600060808201905062001cdf6000830187620012b0565b818103602083015262001cf3818662001c0c565b905062001d046040830185620011d1565b62001d136060830184620011d1565b95945050505050565b7f4e487b7100000000000000000000000000000000000000000000000000000000600052601160045260246000fd5b600062001d588262001130565b91507fffffffffffffffffffffffffffffffffffffffffffffffffffffffffffffffff820362001d8d5762001d8c62001d1c565b5b600182019050919050565b7f4e487b7100000000000000000000000000000000000000000000000000000000600052602260045260246000fd5b6000600282049050600182168062001de057607f821691505b60208210810362001df65762001df562001d98565b5b50919050565b7f4e487b7100000000000000000000000000000000000000000000000000000000600052603260045260246000fd5b600062001e388262001130565b915062001e458362001130565b9250827fffffffffffffffffffffffffffffffffffffffffffffffffffffffffffffffff0382111562001e7d5762001e7c62001d1c565b5b828201905092915050565b7f4f776e61626c653a206e6577206f776e657220697320746865207a65726f206160008201527f6464726573730000000000000000000000000000000000000000000000000000602082015250565b600062001ee660268362001879565b915062001ef38262001e88565b604082019050919050565b6000602082019050818103600083015262001f198162001ed7565b9050919050565b7f4f776e61626c653a2063616c6c6572206973206e6f7420746865206f776e6572600082015250565b600062001f5860208362001879565b915062001f658262001f20565b602082019050919050565b6000602082019050818103600083015262001f8b8162001f49565b9050919050565b60008151905062001fa3816200113a565b92915050565b600062001fc062001fba846200137d565b6200135e565b90508281526020810184848401111562001fdf5762001fde620012e3565b5b62001fec848285620015c0565b509392505050565b600082601f8301126200200c576200200b620012de565b5b81516200201e84826020860162001fa9565b91505092915050565b60008060008060008060008060008060006101608c8e03121562002050576200204f62001126565b5b6000620020608e828f0162001f92565b9b505060208c015167ffffffffffffffff8111156200208457620020836200112b565b5b620020928e828f0162001ff4565b9a50506040620020a58e828f0162001f92565b9950506060620020b88e828f0162001f92565b9850506080620020cb8e828f01620018fc565b97505060a0620020de8e828f0162001f92565b96505060c0620020f18e828f0162001f92565b95505060e0620021048e828f0162001f92565b945050610100620021188e828f01620018fc565b9350506101206200212c8e828f01620018fc565b9250506101408c015167ffffffffffffffff8111156200215157620021506200112b565b5b6200215f8e828f0162001ff4565b9150509295989b509295989b909396995056fe60806040523480156200001157600080fd5b50604051620020b1380380620020b1833981810160405281019062000037919062000570565b600085116200007d576040517f08c379a00000000000000000000000000000000000000000000000000000000081526004016200007490620006ab565b60405180910390fd5b834310620000c2576040517f08c379a0000000000000000000000000000000000000000000000000000000008152600401620000b9906200071d565b60405180910390fd5b600073ffffffffffffffffffffffffffffffffffffffff168273ffffffffffffffffffffffffffffffffffffffff160362000134576040517f08c379a00000000000000000000000000000000000000000000000000000000081526004016200012b906200078f565b60405180910390fd5b336000806101000a81548173ffffffffffffffffffffffffffffffffffffffff021916908373ffffffffffffffffffffffffffffffffffffffff1602179055506040518060c001604052808781526020018681526020018581526020018481526020018373ffffffffffffffffffffffffffffffffffffffff1681526020018281525060066000820151816000015560208201518160010155604082015181600201556060820151816003019080519060200190620001f592919062000283565b5060808201518160040160006101000a81548173ffffffffffffffffffffffffffffffffffffffff021916908373ffffffffffffffffffffffffffffffffffffffff16021790555060a08201518160050190805190602001906200025b92919062000283565b5090505060006003819055506000600481905550600060058190555050505050505062000815565b8280546200029190620007e0565b90600052602060002090601f016020900481019282620002b5576000855562000301565b82601f10620002d057805160ff191683800117855562000301565b8280016001018555821562000301579182015b8281111562000300578251825591602001919060010190620002e3565b5b50905062000310919062000314565b5090565b5b808211156200032f57600081600090555060010162000315565b5090565b6000604051905090565b600080fd5b600080fd5b6000819050919050565b6200035c8162000347565b81146200036857600080fd5b50565b6000815190506200037c8162000351565b92915050565b600080fd5b600080fd5b6000601f19601f8301169050919050565b7f4e487b7100000000000000000000000000000000000000000000000000000000600052604160045260246000fd5b620003d7826200038c565b810181811067ffffffffffffffff82111715620003f957620003f86200039d565b5b80604052505050565b60006200040e62000333565b90506200041c8282620003cc565b919050565b600067ffffffffffffffff8211156200043f576200043e6200039d565b5b6200044a826200038c565b9050602081019050919050565b60005b83811015620004775780820151818401526020810190506200045a565b8381111562000487576000848401525b50505050565b6000620004a46200049e8462000421565b62000402565b905082815260208101848484011115620004c357620004c262000387565b5b620004d084828562000457565b509392505050565b600082601f830112620004f057620004ef62000382565b5b8151620005028482602086016200048d565b91505092915050565b600073ffffffffffffffffffffffffffffffffffffffff82169050919050565b600062000538826200050b565b9050919050565b6200054a816200052b565b81146200055657600080fd5b50565b6000815190506200056a816200053f565b92915050565b60008060008060008060c0878903121562000590576200058f6200033d565b5b6000620005a089828a016200036b565b9650506020620005b389828a016200036b565b9550506040620005c689828a016200036b565b945050606087015167ffffffffffffffff811115620005ea57620005e962000342565b5b620005f889828a01620004d8565b93505060806200060b89828a0162000559565b92505060a087015167ffffffffffffffff8111156200062f576200062e62000342565b5b6200063d89828a01620004d8565b9150509295509295509295565b600082825260208201905092915050565b7f676f616c206c657373207468616e203000000000000000000000000000000000600082015250565b6000620006936010836200064a565b9150620006a0826200065b565b602082019050919050565b60006020820190508181036000830152620006c68162000684565b9050919050565b7f6c657373207468616e2063757272656e7420626c6f636b000000000000000000600082015250565b6000620007056017836200064a565b91506200071282620006cd565b602082019050919050565b600060208201905081810360008301526200073881620006f6565b9050919050565b7f696e76616c69642063726561746f722061646472657373000000000000000000600082015250565b6000620007776017836200064a565b915062000784826200073f565b602082019050919050565b60006020820190508181036000830152620007aa8162000768565b9050919050565b7f4e487b7100000000000000000000000000000000000000000000000000000000600052602260045260246000fd5b60006002820490506001821680620007f957607f821691505b6020821081036200080f576200080e620007b1565b5b50919050565b61188c80620008256000396000f3fe6080604052600436106100c65760003560e01c806363bd1d4a1161007f578063cef4225411610059578063cef4225414610258578063f9b8057f14610296578063fcd802b1146102c1578063fe47a8a7146102f1576100cd565b806363bd1d4a146101da5780636e57b700146101f85780637569b3d71461022d576100cd565b80631cee0700146100cf5780631f6d49421461010d578063230244081461014a578063386581751461017a57806341c0e1b5146101a5578063590e1ae3146101bc576100cd565b366100cd57005b005b3480156100db57600080fd5b506100f660048036038101906100f19190611009565b61031c565b604051610104929190611086565b60405180910390f35b34801561011957600080fd5b50610134600480360381019061012f91906110db565b610360565b6040516101419190611108565b60405180910390f35b610164600480360381019061015f91906110db565b610378565b604051610171919061113e565b60405180910390f35b34801561018657600080fd5b5061018f610834565b60405161019c9190611108565b60405180910390f35b3480156101b157600080fd5b506101ba61083a565b005b6101c4610901565b6040516101d1919061113e565b60405180910390f35b6101e2610b1d565b6040516101ef919061113e565b60405180910390f35b34801561020457600080fd5b5061020d610bf1565b6040516102249b9a999897969594939291906111f2565b60405180910390f35b34801561023957600080fd5b50610242610dab565b60405161024f9190611108565b60405180910390f35b34801561026457600080fd5b5061027f600480360381019061027a9190611009565b610db1565b60405161028d929190611086565b60405180910390f35b3480156102a257600080fd5b506102ab610e4a565b6040516102b891906112ab565b60405180910390f35b3480156102cd57600080fd5b506102d6610e6e565b6040516102e8969594939291906112c6565b60405180910390f35b3480156102fd57600080fd5b50610306610fc8565b6040516103139190611108565b60405180910390f35b60026020528060005260406000206000915090508060000154908060010160009054906101000a900473ffffffffffffffffffffffffffffffffffffffff16905082565b60016020528060005260406000206000915090505481565b60008034116103bc576040517f08c379a00000000000000000000000000000000000000000000000000000000081526004016103b390611381565b60405180910390fd5b60008054906101000a900473ffffffffffffffffffffffffffffffffffffffff1673ffffffffffffffffffffffffffffffffffffffff163373ffffffffffffffffffffffffffffffffffffffff161461044a576040517f08c379a0000000000000000000000000000000000000000000000000000000008152600401610441906113ed565b60405180910390fd5b600660020154431115610512577f06a029cfeb9ba6076c9c728f3ac5eb2de5535c866f145b0679a2f5fb2afcae613060035460045460405161048e9392919061140d565b60405180910390a18173ffffffffffffffffffffffffffffffffffffffff166108fc349081150290604051600060405180830381858888f19350505050610509577fa2db52a45d71264723caeac03c235d51bb30cff5e1ac71c97a5842ec94fbb6af6040516104fc906114b6565b60405180910390a1600080fd5b6000905061082f565b600660010154600354106105e4577ff2f86ff1ec83177c1a8bfc8a746ed87b25fb731cd937a710b77139e477d2ab42306003546004546040516105579392919061140d565b60405180910390a18173ffffffffffffffffffffffffffffffffffffffff166108fc349081150290604051600060405180830381858888f193505050506105d2577fa2db52a45d71264723caeac03c235d51bb30cff5e1ac71c97a5842ec94fbb6af6040516105c5906114b6565b60405180910390a1600080fd5b6105da610b1d565b506000905061082f565b6000600160008473ffffffffffffffffffffffffffffffffffffffff1673ffffffffffffffffffffffffffffffffffffffff1681526020019081526020016000205490506000600260006004548152602001908152602001600020604051806040016040529081600082015481526020016001820160009054906101000a900473ffffffffffffffffffffffffffffffffffffffff1673ffffffffffffffffffffffffffffffffffffffff1673ffffffffffffffffffffffffffffffffffffffff1681525050905083816020019073ffffffffffffffffffffffffffffffffffffffff16908173ffffffffffffffffffffffffffffffffffffffff16815250503481600001818152505034600160008673ffffffffffffffffffffffffffffffffffffffff1673ffffffffffffffffffffffffffffffffffffffff168152602001908152602001600020600082825461073d9190611505565b9250508190555034600360008282546107569190611505565b92505081905550600460008154809291906107709061155b565b91905055506000820361079657600560008154809291906107909061155b565b91905055505b7f1613ab8aabab6179e17fac6982185658b18ef4166931650cf8a2d5ed1a987aeb3085346040516107c9939291906115a3565b60405180910390a160066001015460035410610828577ff2f86ff1ec83177c1a8bfc8a746ed87b25fb731cd937a710b77139e477d2ab42306003546004546040516108169392919061140d565b60405180910390a1610826610b1d565b505b6001925050505b919050565b60045481565b3373ffffffffffffffffffffffffffffffffffffffff1660008054906101000a900473ffffffffffffffffffffffffffffffffffffffff1673ffffffffffffffffffffffffffffffffffffffff16146108c8576040517f08c379a00000000000000000000000000000000000000000000000000000000081526004016108bf90611626565b60405180910390fd5b60008054906101000a900473ffffffffffffffffffffffffffffffffffffffff1673ffffffffffffffffffffffffffffffffffffffff16ff5b6000600660020154431161094a576040517f08c379a000000000000000000000000000000000000000000000000000000000815260040161094190611692565b60405180910390fd5b60066001015460035410610993576040517f08c379a000000000000000000000000000000000000000000000000000000000815260040161098a906116fe565b60405180910390fd5b6000600160003373ffffffffffffffffffffffffffffffffffffffff1673ffffffffffffffffffffffffffffffffffffffff1681526020019081526020016000205490506000600160003373ffffffffffffffffffffffffffffffffffffffff1673ffffffffffffffffffffffffffffffffffffffff168152602001908152602001600020819055503373ffffffffffffffffffffffffffffffffffffffff166108fc829081150290604051600060405180830381858888f1935050505015610a9b577f5912b7ad61865e7a6d5dcaa41e58e9563c7e286fc42999b67e1773e6b76e322d303383604051610a89939291906115a3565b60405180910390a16001915050610b1a565b80600160003373ffffffffffffffffffffffffffffffffffffffff1673ffffffffffffffffffffffffffffffffffffffff168152602001908152602001600020819055507fa2db52a45d71264723caeac03c235d51bb30cff5e1ac71c97a5842ec94fbb6af604051610b0c9061176a565b60405180910390a160009150505b90565b60006006600101546003541015610b69576040517f08c379a0000000000000000000000000000000000000000000000000000000008152600401610b60906117d6565b60405180910390fd5b600060035490506000600381905550600660040160009054906101000a900473ffffffffffffffffffffffffffffffffffffffff1673ffffffffffffffffffffffffffffffffffffffff166108fc829081150290604051600060405180830381858888f1935050505015610be1576001915050610bee565b8060038190555060009150505b90565b6000606060008060008060008060008060606006600001546006600301600660010154600660020154600660040160009054906101000a900473ffffffffffffffffffffffffffffffffffffffff1660035460045460055460008054906101000a900473ffffffffffffffffffffffffffffffffffffffff16306006600501898054610c7c90611825565b80601f0160208091040260200160405190810160405280929190818152602001828054610ca890611825565b8015610cf55780601f10610cca57610100808354040283529160200191610cf5565b820191906000526020600020905b815481529060010190602001808311610cd857829003601f168201915b50505050509950808054610d0890611825565b80601f0160208091040260200160405190810160405280929190818152602001828054610d3490611825565b8015610d815780601f10610d5657610100808354040283529160200191610d81565b820191906000526020600020905b815481529060010190602001808311610d6457829003601f168201915b505050505090509a509a509a509a509a509a509a509a509a509a509a50909192939495969798999a565b60055481565b600080600060026000858152602001908152602001600020604051806040016040529081600082015481526020016001820160009054906101000a900473ffffffffffffffffffffffffffffffffffffffff1673ffffffffffffffffffffffffffffffffffffffff1673ffffffffffffffffffffffffffffffffffffffff16815250509050806000015181602001519250925050915091565b60008054906101000a900473ffffffffffffffffffffffffffffffffffffffff1681565b6006806000015490806001015490806002015490806003018054610e9190611825565b80601f0160208091040260200160405190810160405280929190818152602001828054610ebd90611825565b8015610f0a5780601f10610edf57610100808354040283529160200191610f0a565b820191906000526020600020905b815481529060010190602001808311610eed57829003601f168201915b5050505050908060040160009054906101000a900473ffffffffffffffffffffffffffffffffffffffff1690806005018054610f4590611825565b80601f0160208091040260200160405190810160405280929190818152602001828054610f7190611825565b8015610fbe5780601f10610f9357610100808354040283529160200191610fbe565b820191906000526020600020905b815481529060010190602001808311610fa157829003601f168201915b5050505050905086565b60035481565b600080fd5b6000819050919050565b610fe681610fd3565b8114610ff157600080fd5b50565b60008135905061100381610fdd565b92915050565b60006020828403121561101f5761101e610fce565b5b600061102d84828501610ff4565b91505092915050565b61103f81610fd3565b82525050565b600073ffffffffffffffffffffffffffffffffffffffff82169050919050565b600061107082611045565b9050919050565b61108081611065565b82525050565b600060408201905061109b6000830185611036565b6110a86020830184611077565b9392505050565b6110b881611065565b81146110c357600080fd5b50565b6000813590506110d5816110af565b92915050565b6000602082840312156110f1576110f0610fce565b5b60006110ff848285016110c6565b91505092915050565b600060208201905061111d6000830184611036565b92915050565b60008115159050919050565b61113881611123565b82525050565b6000602082019050611153600083018461112f565b92915050565b600081519050919050565b600082825260208201905092915050565b60005b83811015611193578082015181840152602081019050611178565b838111156111a2576000848401525b50505050565b6000601f19601f8301169050919050565b60006111c482611159565b6111ce8185611164565b93506111de818560208601611175565b6111e7816111a8565b840191505092915050565b600061016082019050611208600083018e611036565b818103602083015261121a818d6111b9565b9050611229604083018c611036565b611236606083018b611036565b611243608083018a611077565b61125060a0830189611036565b61125d60c0830188611036565b61126a60e0830187611036565b611278610100830186611077565b611286610120830185611077565b81810361014083015261129981846111b9565b90509c9b505050505050505050505050565b60006020820190506112c06000830184611077565b92915050565b600060c0820190506112db6000830189611036565b6112e86020830188611036565b6112f56040830187611036565b818103606083015261130781866111b9565b90506113166080830185611077565b81810360a083015261132881846111b9565b9050979650505050505050565b7f6c657373207468616e2030207765690000000000000000000000000000000000600082015250565b600061136b600f83611164565b915061137682611335565b602082019050919050565b6000602082019050818103600083015261139a8161135e565b9050919050565b7f6e6f742046756e64696e6748756220636f6e7472616374000000000000000000600082015250565b60006113d7601783611164565b91506113e2826113a1565b602082019050919050565b60006020820190508181036000830152611406816113ca565b9050919050565b60006060820190506114226000830186611077565b61142f6020830185611036565b61143c6040830184611036565b949350505050565b7f50726f6a65637420646561646c696e6520686173207061737365642c2070726f60008201527f626c656d2072657475726e696e6720636f6e747269627574696f6e0000000000602082015250565b60006114a0603b83611164565b91506114ab82611444565b604082019050919050565b600060208201905081810360008301526114cf81611493565b9050919050565b7f4e487b7100000000000000000000000000000000000000000000000000000000600052601160045260246000fd5b600061151082610fd3565b915061151b83610fd3565b9250827fffffffffffffffffffffffffffffffffffffffffffffffffffffffffffffffff038211156115505761154f6114d6565b5b828201905092915050565b600061156682610fd3565b91507fffffffffffffffffffffffffffffffffffffffffffffffffffffffffffffffff8203611598576115976114d6565b5b600182019050919050565b60006060820190506115b86000830186611077565b6115c56020830185611077565b6115d26040830184611036565b949350505050565b7f4e6f742046756e64696e67487562000000000000000000000000000000000000600082015250565b6000611610600e83611164565b915061161b826115da565b602082019050919050565b6000602082019050818103600083015261163f81611603565b9050919050565b7f7061737420646561646c696e6500000000000000000000000000000000000000600082015250565b600061167c600d83611164565b915061168782611646565b602082019050919050565b600060208201905081810360008301526116ab8161166f565b9050919050565b7f70726f6a65637420686173206d657420676f616c000000000000000000000000600082015250565b60006116e8601483611164565b91506116f3826116b2565b602082019050919050565b60006020820190508181036000830152611717816116db565b9050919050565b7f526566756e6420646964206e6f742073656e64207375636365737366756c6c79600082015250565b6000611754602083611164565b915061175f8261171e565b602082019050919050565b6000602082019050818103600083015261178381611747565b9050919050565b7f6e6f742066756e64656400000000000000000000000000000000000000000000600082015250565b60006117c0600a83611164565b91506117cb8261178a565b602082019050919050565b600060208201905081810360008301526117ef816117b3565b9050919050565b7f4e487b7100000000000000000000000000000000000000000000000000000000600052602260045260246000fd5b6000600282049050600182168061183d57607f821691505b6020821081036118505761184f6117f6565b5b5091905056fea2646970667358221220bc86cf306224de60bacb172f3a0c6405db0e6d8df46d209064859365f0b4783b64736f6c634300080d0033a2646970667358221220c235c1c3016e7337bc94d6f15cd2fd114480a9f8902b76f831a3f69da52e251d64736f6c634300080d0033",
  "linkReferences": {},
  "deployedLinkReferences": {}
}